{
  "contractName": "Simplebank",
  "abi": [
    {
      "inputs": [],
      "stateMutability": "nonpayable",
      "type": "constructor"
    },
    {
      "inputs": [],
      "name": "numberOfFunders",
      "outputs": [
        {
          "internalType": "uint256",
          "name": "",
          "type": "uint256"
        }
      ],
      "stateMutability": "view",
      "type": "function",
      "constant": true
    },
    {
      "inputs": [],
      "name": "owner",
      "outputs": [
        {
          "internalType": "address",
          "name": "",
          "type": "address"
        }
      ],
      "stateMutability": "view",
      "type": "function",
      "constant": true
    },
    {
      "inputs": [
        {
          "internalType": "address",
          "name": "newOwner",
          "type": "address"
        }
      ],
      "name": "transferOwnerShip",
      "outputs": [],
      "stateMutability": "nonpayable",
      "type": "function"
    },
    {
      "inputs": [],
      "name": "addFunds",
      "outputs": [],
      "stateMutability": "payable",
      "type": "function",
      "payable": true
    },
    {
      "inputs": [],
      "name": "getAllFunders",
      "outputs": [
        {
          "internalType": "address[]",
          "name": "",
          "type": "address[]"
        }
      ],
      "stateMutability": "view",
      "type": "function",
      "constant": true
    },
    {
      "inputs": [
        {
          "internalType": "uint256",
          "name": "withdawAmount",
          "type": "uint256"
        }
      ],
      "name": "withdraw",
      "outputs": [],
      "stateMutability": "nonpayable",
      "type": "function"
    }
  ],
  "bytecode": "0x608060405234801561001057600080fd5b5033600360006101000a81548173ffffffffffffffffffffffffffffffffffffffff021916908373ffffffffffffffffffffffffffffffffffffffff16021790555061097b806100616000396000f3fe6080604052600436106100555760003560e01c80632e1a7d4d1461005a5780636fbbb55d146100835780638863dd1a146100ae5780638da5cb5b146100d7578063a26759cb14610102578063dc79a7fc1461010c575b600080fd5b34801561006657600080fd5b50610081600480360381019061007c9190610575565b610137565b005b34801561008f57600080fd5b50610098610223565b6040516100a59190610692565b60405180910390f35b3480156100ba57600080fd5b506100d560048036038101906100d091906106e0565b61031c565b005b3480156100e357600080fd5b506100ec6103f0565b6040516100f9919061071c565b60405180910390f35b61010a610416565b005b34801561011857600080fd5b50610121610534565b60405161012e9190610746565b60405180910390f35b670de0b6b3a764000081108061019a5750600360009054906101000a900473ffffffffffffffffffffffffffffffffffffffff1673ffffffffffffffffffffffffffffffffffffffff163373ffffffffffffffffffffffffffffffffffffffff16145b6101d9576040517f08c379a00000000000000000000000000000000000000000000000000000000081526004016101d0906107e4565b60405180910390fd5b3373ffffffffffffffffffffffffffffffffffffffff166108fc829081150290604051600060405180830381858888f1935050505015801561021f573d6000803e3d6000fd5b5050565b60606000805467ffffffffffffffff81111561024257610241610804565b5b6040519080825280602002602001820160405280156102705781602001602082028036833780820191505090505b50905060005b600054811015610314576002600082815260200190815260200160002060009054906101000a900473ffffffffffffffffffffffffffffffffffffffff168282815181106102c7576102c6610833565b5b602002602001019073ffffffffffffffffffffffffffffffffffffffff16908173ffffffffffffffffffffffffffffffffffffffff1681525050808061030c90610891565b915050610276565b508091505090565b600360009054906101000a900473ffffffffffffffffffffffffffffffffffffffff1673ffffffffffffffffffffffffffffffffffffffff163373ffffffffffffffffffffffffffffffffffffffff16146103ac576040517f08c379a00000000000000000000000000000000000000000000000000000000081526004016103a390610925565b60405180910390fd5b80600360006101000a81548173ffffffffffffffffffffffffffffffffffffffff021916908373ffffffffffffffffffffffffffffffffffffffff16021790555050565b600360009054906101000a900473ffffffffffffffffffffffffffffffffffffffff1681565b6000339050600160008273ffffffffffffffffffffffffffffffffffffffff1673ffffffffffffffffffffffffffffffffffffffff16815260200190815260200160002060009054906101000a900460ff166105315760018060008373ffffffffffffffffffffffffffffffffffffffff1673ffffffffffffffffffffffffffffffffffffffff16815260200190815260200160002060006101000a81548160ff02191690831515021790555060008060008154809291906104d790610891565b919050559050816002600083815260200190815260200160002060006101000a81548173ffffffffffffffffffffffffffffffffffffffff021916908373ffffffffffffffffffffffffffffffffffffffff160217905550505b50565b60005481565b600080fd5b6000819050919050565b6105528161053f565b811461055d57600080fd5b50565b60008135905061056f81610549565b92915050565b60006020828403121561058b5761058a61053a565b5b600061059984828501610560565b91505092915050565b600081519050919050565b600082825260208201905092915050565b6000819050602082019050919050565b600073ffffffffffffffffffffffffffffffffffffffff82169050919050565b60006105f9826105ce565b9050919050565b610609816105ee565b82525050565b600061061b8383610600565b60208301905092915050565b6000602082019050919050565b600061063f826105a2565b61064981856105ad565b9350610654836105be565b8060005b8381101561068557815161066c888261060f565b975061067783610627565b925050600181019050610658565b5085935050505092915050565b600060208201905081810360008301526106ac8184610634565b905092915050565b6106bd816105ee565b81146106c857600080fd5b50565b6000813590506106da816106b4565b92915050565b6000602082840312156106f6576106f561053a565b5b6000610704848285016106cb565b91505092915050565b610716816105ee565b82525050565b6000602082019050610731600083018461070d565b92915050565b6107408161053f565b82525050565b600060208201905061075b6000830184610737565b92915050565b600082825260208201905092915050565b7f796f752063616e2774207769746864726177206d6f72207468616e203120657460008201527f6865720000000000000000000000000000000000000000000000000000000000602082015250565b60006107ce602383610761565b91506107d982610772565b604082019050919050565b600060208201905081810360008301526107fd816107c1565b9050919050565b7f4e487b7100000000000000000000000000000000000000000000000000000000600052604160045260246000fd5b7f4e487b7100000000000000000000000000000000000000000000000000000000600052603260045260246000fd5b7f4e487b7100000000000000000000000000000000000000000000000000000000600052601160045260246000fd5b600061089c8261053f565b91507fffffffffffffffffffffffffffffffffffffffffffffffffffffffffffffffff82036108ce576108cd610862565b5b600182019050919050565b7f6f6e6c7920746865206f776e65722063616e2064692074686174000000000000600082015250565b600061090f601a83610761565b915061091a826108d9565b602082019050919050565b6000602082019050818103600083015261093e81610902565b905091905056fea2646970667358221220db119d280c037fb0776f9dd2f40f8cf0474add9d78b3bc4eb11b84e2d90367df64736f6c63430008110033",
  "immutableReferences": {},
  "source": "// SPDX-License-Identifier: MIT\r\npragma solidity >=0.4.22 <0.9.0;\r\n \r\ncontract Simplebank {\r\nuint public numberOfFunders ; \r\nmapping (address => bool) private funders; \r\nmapping (uint => address) private lutFunders;\r\naddress public owner ; \r\n\r\nconstructor(){\r\n   owner = msg.sender;\r\n}\r\n\r\nmodifier onlyOwner(){\r\n   require(msg.sender == owner , \"only the owner can di that\");\r\n   _;\r\n}\r\n\r\nfunction transferOwnerShip(address newOwner) external onlyOwner{\r\n   owner = newOwner ;\r\n}\r\n\r\n function addFunds() external payable{\r\n      address funder = msg.sender ; \r\n      if(!funders[funder]){\r\n         funders[funder] = true ;\r\n         uint index = numberOfFunders ++ ; \r\n         lutFunders[index] = funder;\r\n      } \r\n }\r\n\r\n function getAllFunders() external view returns(address[] memory) {\r\n   address[] memory _funders = new address[](numberOfFunders);\r\n   for(uint i=0 ; i < numberOfFunders ; i++){\r\n      _funders[i] = lutFunders[i] ; \r\n   }\r\n   return _funders ; \r\n }\r\n\r\n function withdraw(uint withdawAmount) external {\r\n   require(withdawAmount < 1000000000000000000 || msg.sender == owner, \"you can't withdraw mor than 1 ether\");\r\n   payable (msg.sender).transfer(withdawAmount);\r\n }\r\n\r\n}\r\n\r\n\r\n//const instance = await Simplebank.deployed()\r\n//instance.addFunds({value:\"500000000000000000\" , from: accounts[0]})\r\n//instance.addFunds({value:\"500000000000000000\" , from: accounts[1]})\r\n// const funds = instance.funds()",
  "sourcePath": "C:\\Users\\Elad Golan\\Desktop\\tech_rony\\tech2023\\solidity01\\contracts\\Simplebank.sol",
  "compiler": {
    "name": "solc",
    "version": "0.8.17+commit.8df45f5f.Emscripten.clang"
  },
  "schemaVersion": "3.4.11",
  "updatedAt": "2023-01-08T09:35:16.638Z",
  "networkType": "ethereum",
  "devdoc": {
    "kind": "dev",
    "methods": {},
    "version": 1
  },
  "userdoc": {
    "kind": "user",
    "methods": {},
    "version": 1
  }
}